:020000040800F2
:1000000000000220892C0008DD1A0008E51A00080B
:10001000FD1A0008051B00080D1B00080000000069
:1000200000000000000000000000000091970008A0
:10003000151B000800000000119A0008799A0008BA
:10004000D92C0008D92C0008D92C0008D92C00087C
:10005000D92C0008D92C0008D92C0008D92C00086C
:10006000D92C0008D92C0008D92C0008D92C00085C
:10007000D92C0008D92C0008D92C0008D92C00084C
:10008000D92C0008D92C0008251B0008D92C000801
:10009000D92C0008D92C0008D92C0008D92C00082C
:1000A000D92C0008391B0008D92C0008D92C0008CD
:1000B000D92C00084D1B0008D92C0008D92C0008A9
:1000C000D92C0008D92C0008D92C0008D92C0008FC
:1000D000D92C0008112A0008D92C0008D92C0008B6
:1000E000D92C0008D92C0008D92C0008D92C0008DC
:1000F000D92C0008D92C0008D92C0008D92C0008CC
:10010000D92C0008D92C0008D92C0008D92C0008BB
:10011000D92C0008D92C0008D92C0008D92C0008AB
:10012000611B0008D92C0008D92C0008751B000899
:10013000D92C0008D92C0008D92C0008D92C00088B
:10014000D92C0008D92C0008D92C0008D92C00087B
:10015000D92C0008D92C0008D92C0008D92C00086B
:10016000D92C0008D92C0008D92C0008D92C00085B
:10017000D92C0008D92C0008D92C00080000000058
:08018000D92C0008D92C00085D
:1001900010B5054C237833B9044B13B10448AFF3C1
:1001A00000800123237010BD4002002000000000E9
:1001B0008CE7000808B5034B1BB103490348AFF3B4
:1001C000008008BD00000000440200208CE7000809
:1001D000F0B400EB4003DFF8880000EBC30000F14F
:1001E00018063069F7687568874232D3B368DC1B3C
:1001F000631E934214D37D19D01900BF11F8013B3F
:1002000005F8013B013A05D011F8013B05F8013B27
:10021000013AF3D1BFF35F8FF0600120F0BC70476B
:10022000C018904219D37819121B11F8013B00F83D
:10023000013B013CF9D1141C05D011F8013B05F834
:10024000013B013AF9D1BFF35F8FF4600120F0BCAC
:100250007047C01B01389042CDD20020F0BC7047DF
:1002600098330120000000000000000000000000A2
:1002700001F0FF01102A2BDB10F0070F08D010F857
:10028000013B013A8B422DD010F0070F42B3F6D15B
:10029000F0B441EA012141EA014122F007047FF074
:1002A00000070023F0E80256083C85EA010586EACB
:1002B000010685FA47F5A3FA87F586FA47F6A5FA07
:1002C00087F68EB9EED1F0BC01F0FF0102F0070213
:1002D00032B110F8013B013A83EA010313B1F8D1BE
:1002E0000020704701387047002D06BF354603389F
:1002F000073815F0010F07D1013015F4807F02BFD8
:10030000013015F4C03F0130F0BC0138704700BF28
:10031000034613F8012B002AFBD1181A0138704745
:1003200081F0004102E000BF83F0004330B54FEAA6
:1003300041044FEA430594EA050F08BF90EA020F13
:100340001FBF54EA000C55EA020C7FEA645C7FEAA6
:10035000655C00F0E2804FEA5454D4EB5555B8BFC9
:100360006D420CDD2C4480EA020281EA030382EA3A
:10037000000083EA010180EA020281EA0303362DCC
:1003800088BF30BD11F0004F4FEA01314FF4801C9F
:100390004CEA113102D0404261EB410113F0004FB1
:1003A0004FEA03334CEA133302D0524263EB430368
:1003B00094EA050F00F0A780A4F10104D5F1200E06
:1003C0000DDB02FA0EFC22FA05F2801841F1000161
:1003D00003FA0EF2801843FA05F359410EE0A5F135
:1003E00020050EF1200E012A03FA0EFC28BF4CF066
:1003F000020C43FA05F3C01851EBE37101F000451C
:1004000007D54FF0000EDCF1000C7EEB00006EEB28
:100410000101B1F5801F1BD3B1F5001F0CD34908B2
:100420005FEA30004FEA3C0C04F101044FEA445209
:1004300012F5800F80F09A80BCF1004F08BF5FEA90
:10044000500C50F1000041EB045141EA050130BD70
:100450005FEA4C0C404141EB0101013C28BFB1F582
:10046000801FE9D291F0000F04BF01460020B1FACD
:1004700081F308BF2033A3F10B03B3F120020CDAA0
:100480000C3208DD02F1140CC2F10C0201FA0CF07E
:1004900021FA02F10CE002F11402D8BFC2F1200CE3
:1004A00001FA02F120FA0CFCDCBF41EA0C01904099
:1004B000E41AA2BF01EB0451294330BD6FEA0404E2
:1004C0001F3C1CDA0C340EDC04F11404C4F12002CD
:1004D00020FA04F001FA02F340EA030021FA04F3DF
:1004E00045EA030130BDC4F10C04C4F1200220FA36
:1004F00002F001FA04F340EA0300294630BD21FA74
:1005000004F0294630BD94F0000F83F4801306BF39
:1005100081F480110134013D4EE77FEA645C18BF2D
:100520007FEA655C29D094EA050F08BF90EA020FC4
:1005300005D054EA000C04BF1946104630BD91EABC
:10054000030F1EBF0021002030BD5FEA545C05D1BF
:100550004000494128BF41F0004130BD14F58004FE
:100560003CBF01F5801130BD01F0004545F0FE4172
:1005700041F470014FF0000030BD7FEA645C1ABFA7
:10058000194610467FEA655C1CBF0B46024650EADE
:10059000013406BF52EA033591EA030F41F400210A
:1005A00030BD00BF90F0000F04BF0021704730B590
:1005B0004FF4806404F132044FF000054FF0000165
:1005C00050E700BF90F0000F04BF0021704730B526
:1005D0004FF4806404F1320410F0004548BF4042FB
:1005E0004FF000013EE700BF42004FEAE2014FEA50
:1005F00031014FEA02701FBF12F07F4393F07F4F2B
:1006000081F06051704732F07F4208BF704793F02D
:100610007F4F04BF41F40021704730B54FF4607440
:1006200001F0004521F000411CE700BF50EA010243
:1006300008BF704730B54FF000050AE050EA0102EC
:1006400008BF704730B511F0004502D5404261EB5C
:1006500041014FF4806404F132045FEA915C3FF49D
:10066000D8AE4FF003025FEADC0C18BF03325FEA3A
:10067000DC0C18BF033202EBDC02C2F1200300FAEB
:1006800003FC20FA02F001FA03FE40EA0E0021FA10
:1006900002F11444BDE600BF70B54FF0FF0C4CF4FE
:1006A000E06C1CEA11541DBF1CEA135594EA0C0FB0
:1006B00095EA0C0F00F0DEF82C4481EA030621EAEB
:1006C0004C5123EA4C5350EA013518BF52EA033526
:1006D00041F4801143F4801338D0A0FB02CE4FF0D8
:1006E0000005E1FB02E506F00042E0FB03E54FF008
:1006F0000006E1FB03569CF0000F18BF4EF0010E00
:10070000A4F1FF04B6F5007F64F5407404D25FEAFB
:100710004E0E6D4146EB060642EAC62141EA5551AE
:100720004FEAC52040EA5E504FEACE2EB4F1FD0CF0
:1007300088BFBCF5E06F1ED8BEF1004F08BF5FEA6E
:10074000500E50F1000041EB045170BD06F0004620
:1007500046EA010140EA020081EA0301B4EB5C04CD
:10076000C2BFD4EB0C0541EA045170BD41F48011C5
:100770004FF0000E013C00F3AB8014F1360FDEBFEA
:10078000002001F0004170BDC4F10004203C35DAC6
:100790000C341BDC04F11404C4F1200500FA05F349
:1007A00020FA04F001FA05F240EA020001F00042EA
:1007B00021F0004110EBD37021FA04F642EB060160
:1007C0005EEA430E08BF20EAD37070BDC4F10C048A
:1007D000C4F1200500FA04F320FA05F001FA04F24E
:1007E00040EA020001F0004110EBD37041F100013A
:1007F0005EEA430E08BF20EAD37070BDC4F1200545
:1008000000FA05F24EEA020E20FA04F301FA05F2AC
:1008100043EA020321FA04F001F0004121FA04F254
:1008200020EA020000EBD3705EEA430E08BF20EA24
:10083000D37070BD94F0000F0FD101F0004640005E
:1008400041EB010111F4801F08BF013CF7D041EAE0
:10085000060195F0000F18BF704703F000465200E4
:1008600043EB030313F4801F08BF013DF7D043EAB5
:100870000603704794EA0C0F0CEA135518BF95EA6B
:100880000C0F0CD050EA410618BF52EA4306D1D1F2
:1008900081EA030101F000414FF0000070BD50EA11
:1008A000410606BF1046194652EA430619D094EA9B
:1008B0000C0F02D150EA013613D195EA0C0F05D185
:1008C00052EA03361CBF104619460AD181EA0301D9
:1008D00001F0004141F0FE4141F470014FF0000091
:1008E00070BD41F0FE4141F4780170BD70B54FF02C
:1008F000FF0C4CF4E06C1CEA11541DBF1CEA1355AC
:1009000094EA0C0F95EA0C0F00F0A7F8A4EB05048D
:1009100081EA030E52EA03354FEA013100F0888084
:100920004FEA03334FF0805545EA131343EA12634D
:100930004FEA022245EA111545EA10654FEA002602
:100940000EF000419D4208BF964244F1FD0404F5BB
:10095000407402D25B084FEA3202B61A65EB030517
:100960005B084FEA32024FF480104FF4002CB6EBD4
:10097000020E75EB030E22BFB61A754640EA0C0054
:100980005B084FEA3202B6EB020E75EB030E22BF94
:10099000B61A754640EA5C005B084FEA3202B6EBD5
:1009A000020E75EB030E22BFB61A754640EA9C0094
:1009B0005B084FEA3202B6EB020E75EB030E22BF64
:1009C000B61A754640EADC0055EA060E18D04FEA22
:1009D000051545EA16754FEA06164FEAC30343EAC2
:1009E00052734FEAC2025FEA1C1CC0D111F4801F8F
:1009F0000BD141EA00014FF000004FF0004CB6E788
:100A000011F4801F04BF01430020B4F1FD0C88BF26
:100A1000BCF5E06F3FF6AFAEB5EB030C04BFB6EB31
:100A2000020C5FEA500C50F1000041EB045170BD24
:100A30000EF0004E4EEA113114EB5C04C2BFD4EB51
:100A40000C0541EA045170BD41F480114FF0000ED5
:100A5000013C90E645EA060E8DE60CEA135594EA51
:100A60000C0F08BF95EA0C0F3FF43BAF94EA0C0F54
:100A70000AD150EA01347FF434AF95EA0C0F7FF4C9
:100A800025AF104619462CE795EA0C0F06D152EA1D
:100A900003353FF4FDAE1046194622E750EA410601
:100AA00018BF52EA43067FF4C5AE50EA41047FF412
:100AB0000DAF52EA43057FF4EBAE12E74FF0FF3C77
:100AC00006E000BF4FF0010C02E000BF4FF0010C48
:100AD0004DF804CD4FEA410C7FEA6C5C4FEA430CC1
:100AE00018BF7FEA6C5C1BD001B050EA410C0CBF10
:100AF00052EA430C91EA030F02BF90EA020F002072
:100B0000704710F1000F91EA030F58BF994208BFD8
:100B100090422CBFD8176FEAE37040F00100704795
:100B20004FEA410C7FEA6C5C02D150EA013C07D1EC
:100B30004FEA430C7FEA6C5CD6D152EA033CD3D037
:100B40005DF8040B704700BF8446104662468C4631
:100B50001946634600E000BF01B5FFF7B7FF002864
:100B600048BF10F1000F01BD4DF808EDFFF7F4FF8D
:100B70000CBF012000205DF808FB00BF4DF808ED18
:100B8000FFF7EAFF34BF012000205DF808FB00BF3B
:100B90004DF808EDFFF7E0FF94BF012000205DF85D
:100BA00008FB00BF4DF808EDFFF7CEFF94BF012012
:100BB00000205DF808FB00BF4DF808EDFFF7C4FF0B
:100BC00034BF012000205DF808FB00BF4FEA410C54
:100BD0007FEA6C5C02D150EA013C0AD14FEA430C37
:100BE0007FEA6C5C02D152EA033C02D14FF0000074
:100BF00070474FF0010070474FEA410212F50012B2
:100C000015D211D56FF47873B3EB625212D94FEA53
:100C1000C12343F0004343EA505311F0004F23FA3D
:100C200002F018BF404270474FF00000704750EA92
:100C3000013005D111F0004008BF6FF0004070474F
:100C40004FF00000704700BF53B94AB9002908BFF0
:100C500000281CBF4FF0FF314FF0FF3000F088B983
:100C6000ADF1080C6DE904CE00F006F8DDF804E003
:100C7000DDE9022304B070472DE9F047089D8E4658
:100C800004468846002B4AD18A42174662D9B2FAF6
:100C900082F64EB1C6F1200301FA06F820FA03F3FA
:100CA000B74043EA0808B4404FEA174E1FFA87FCE2
:100CB000B8FBFEF1230C0EFB118843EA084301FB4D
:100CC0000CF29A4209D9FB1801F1FF3080F0EA805A
:100CD0009A4240F2E78002393B449A1AA3B2B2FB2F
:100CE000FEF00EFB102243EA024300FB0CFC9C4585
:100CF00009D9FB1800F1FF3280F0D6809C4540F204
:100D0000D3803B44023840EA0140A3EB0C030021AE
:100D10001DB1F3400022C5E90032BDE8F0878B42E7
:100D200005D90DB1C5E9000100210846F5E7B3FA80
:100D300083F1002946D1734502D3824200F2058136
:100D4000841A6EEB030201209046002DE5D0C5E920
:100D50000048E2E7002A00F09080B2FA82F6002E06
:100D600040F0A4808A1A030C4FEA174E80B2BCB23E
:100D70000121B2FBFEFC0EFB1C2243EA024304FBF2
:100D80000CF29A4207D9FB180CF1FF3802D29A42B2
:100D900000F2E080C4469B1AB3FBFEF20EFB123356
:100DA00040EA034302FB04F49C4207D9FB1802F11A
:100DB000FF3002D29C4200F2CA8002461B1B42EA6C
:100DC0000C40A5E7C1F120068B4022FA06F71F432D
:100DD0000EFA01F420FA06F32EFA06FE4FEA17493E
:100DE000234300FA01F81FFA87FCBEFBF9F01C0C44
:100DF00009FB10EE44EA0E4400FB0CFEA64502FA85
:100E000001F209D93C1900F1FF3A80F09C80A64517
:100E100040F2998002383C44A4EB0E041FFA83FE92
:100E2000B4FBF9F309FB13444EEA044403FB0CFC46
:100E3000A44508D93C1903F1FF3E80F08280A44507
:100E40007FD9023B3C4443EA0040A4EB0C04A0FBE6
:100E500002EC64457346E14662D35FD05DB1B8EB06
:100E6000030264EB090404FA06F622FA01F31E43B6
:100E7000CC40C5E9006400214FE7B1FBF2FC010C56
:100E800041EA0E4180B240EA01423B4638463C46C8
:100E9000B846BE462026B1FBF7F1A2EB080241EAB4
:100EA0000C4166E7014618E710462CE7C6F1200220
:100EB0002EFA02F3B740B14020FA02F24FEA174E81
:100EC0000A43B3FBFEF8BCB20EFB1833110C41EA27
:100ED000034108FB04F9B04089454FEA104380B252
:100EE0003ED9791808F1FF3C01D289451FD8A1EB02
:100EF0000901B1FBFEF909FB04F80EFB191192B2CE
:100F000042EA0142424529D2BA1809F1FF31C4D25E
:100F10004245C2D2A9F102013A44BEE7F0459DD252
:100F2000BEEB02036CEB070C0138E14696E7A7EB3A
:100F300009094944A8F1020CB1FBFEF909FB04F8C8
:100F4000DBE773467FE7504666E70846FDE63B442D
:100F5000023A33E7ACF1020C3B441CE749469CE7FC
:100F6000A1EB0901C446B1FBFEF909FB04F8C4E793
:100F7000704700BF80B584B000AF3B4600221A60C6
:100F80005A609A60DA602E4B2E4A1A602C4B00226F
:100F90005A602B4B00229A60294B01221A61284B80
:100FA00000221A76264B002283F82020244B4FF093
:100FB0008052DA62224B4FF000629A62204B00228C
:100FC000DA601F4B0322DA611D4B002283F83020C8
:100FD0001B4B01225A611A4801F0C2FE0346002B46
:100FE00001D000F053FB00233B6001237B60002312
:100FF000BB603B461946124802F080FA0346002BBC
:1010000001D000F043FB02237B603B4619460C48AD
:1010100002F074FA0346002B01D000F037FB0323E3
:101020007B603B461946064802F068FA0346002BEF
:1010300001D000F02BFB00BF1037BD4680BD00BFC4
:101040005C0200200020014080B58AB000AF7860CB
:1010500007F1140300221A605A609A60DA601A617C
:101060007B681B681B4A93422FD100233B611A4BBC
:101070005B6C194A43F480735364174B5B6C03F445
:1010800080733B613B690023FB60134B1B6B124A6F
:1010900043F001031363104B1B6B03F00103FB6070
:1010A000FB6807237B610323BB610023FB6107F11E
:1010B00014031946094803F0FBF90022002112200D
:1010C00002F05CFD122002F085FD00BF2837BD460E
:1010D00080BD00BF002001400038024000000240F7
:1010E00080B5BAB002AF78600023C7F8DC3007F1F2
:1010F0000C03C822002118460BF042FA002387F89F
:10110000DB30274801F098FF07F1D4034FF0FF329E
:1011100000924FF0FF320021002008F09BF80346B8
:10112000012B3BD1D7F8D430012B37D11D480AF021
:101130004DFB97F8DB301C4A1188322203FB02F288
:10114000D7F8DC3013445B00E0333B440A4623F815
:10115000D42C164B186897F8DB3007F10C02642189
:1011600001FB03F31A44D7F8DC305B00D1180023ED
:10117000002206F03FFBD7F8DC300133C7F8DC3043
:10118000D7F8DC30322BBFD197F8DB30002B0CBF07
:1011900001230023DBB287F8DB30B5E700BFB3E7FC
:1011A0005C020020A8E70008A4020020AC02002096
:1011B00080B584B002AF7860786802F07DF90346AC
:1011C0009AB2074B1A80074B18680023009300233C
:1011D0000122002108F0C4F800BF0837BD4680BDD9
:1011E000A4020020B002002080B582B000AF00232E
:1011F0007B60104B1B6B0F4A43F4800313630D4B52
:101200001B6B03F480037B607B6800220021382085
:1012100002F0B4FC382002F0DDFC002200213B206B
:1012200002F0ACFC3B2002F0D5FC00BF0837BD4605
:1012300080BD00BF0038024080B58AB000AF07F122
:10124000140300221A605A609A60DA601A6100235F
:101250003B61314B1B6B304A43F0800313632E4BD1
:101260001B6B03F080033B613B690023FB602A4B4F
:101270001B6B294A43F001031363274B1B6B03F0DD
:101280000103FB60FB680023BB60234B1B6B224AFE
:1012900043F002031363204B1B6B03F00203BB609C
:1012A000BB6800237B601C4B1B6B1B4A43F008038D
:1012B0001363194B1B6B03F008037B607B680022F0
:1012C0001021164803F0D4FB00224FF4704114485B
:1012D00003F0CEFB10237B610123BB610023FB6184
:1012E00000233B6207F1140319460C4803F0E0F8B1
:1012F0004FF470437B610123BB610023FB6100233A
:101300003B6207F114031946054803F0D1F800BF0A
:101310002837BD4680BD00BF0038024000000240B3
:10132000000C024080B485B000AF786039607B6803
:101330005B69FB60FA683B6813401A04FB68D94399
:101340003B680B401A437B689A6100BF1437BD4667
:101350005DF8047B7047000080B584B000AF786012
:101360007B68002B03D118480AF030FA29E07B682B
:10137000FB60FB681B78032B03D914480AF026FA9C
:101380001FE0FB681A69FB689B8A19461046FFF745
:10139000C9FFFB68DB68184606F030FFFB681B7866
:1013A0001A460B4B53F8223007F108010122184668
:1013B00006F0C0FB0346012BE3D1BA68FB68DA6094
:1013C000DFE71037BD4680BD1CE8000844E8000890
:1013D000C802002090B585B002AF0023FB7136E053
:1013E000FA791F4913465B001344DB000B440833B2
:1013F0001968FA7913465B001344DB001A46184B50
:10140000134400220192012200926422154806F042
:101410006BFD0346012B03D06521134800F03CF916
:10142000FC7900220421012006F072F903460F4ADC
:1014300042F82430FB790D4A52F82330002B03D1B7
:101440006721094800F028F9FB790133FB71FB792A
:10145000032BC5D900BF00BF0C37BD4690BD00BFF0
:10146000000000205913000870E80008C80200209E
:1014700080B582B002AF01F031FC00F08BF8FFF7CD
:10148000DBFEFFF7B1FE00F0ABF901F035FB00F039
:101490000FF9FFF76FFD01F005FB00F031FC00F0E4
:1014A0007BFC304804F036FC032002F047FB08F0D8
:1014B00051FD00220121322006F02AF903462A4A72
:1014C000136000224FF480710A2006F021F90346D0
:1014D000264A136000220221322006F019F9034641
:1014E000234A1360002301930323009300234FF446
:1014F00000722049204806F0F7FC0346012B03D078
:101500007B211E4800F0C8F80023019303230093B9
:1015100000234FF400721A491A4806F0E5FC03460E
:10152000012B03D07C21154800F0B6F8164B01932F
:101530000223009300234FF400721449144806F06C
:10154000D3FC0346012B03D07D210C4800F0A4F806
:10155000FFF740FF034804F0DDFB06F0FFFE00BF8D
:10156000FDE700BF3C040020A8020020C4020020C8
:10157000AC02002088E800084922000894E800082E
:10158000A8E800081D170008B0020020B8E800080D
:10159000E110000880B594B000AF07F120033022BD
:1015A000002118460AF0ECFF07F10C0300221A6034
:1015B0005A609A60DA601A610023BB60284B1B6C8A
:1015C000274A43F080531364254B1B6C03F0805370
:1015D000BB60BB6800237B60224B1B68214A43F43D
:1015E000804313601F4B1B6803F480437B607B6860
:1015F00001233B624FF480337B620223BB634FF4D1
:101600008003FB6304233B6490237B640223BB645D
:101610000623FB6407F12003184603F077FA03461C
:10162000002B01D000F032F80F23FB6002233B6156
:1016300000237B614FF4A053BB614FF48053FB61E7
:1016400007F10C030421184603F08CFD0346002B20
:1016500001D000F01BF800BF5037BD4680BD00BF71
:10166000003802400070004080B582B000AF786062
:101670007B681B68044A934201D101F051FB00BF13
:101680000837BD4680BD00BF0000014080B400AFF8
:1016900072B600BF00BFFDE780B483B000AF7860D2
:1016A000396000BF0C37BD465DF8047B7047000011
:1016B00080B500AF064B074A1A60054804F04CF8A5
:1016C0000346002B01D0FFF7E1FF00BF80BD00BF44
:1016D000B40200200008065080B485B000AF7860E6
:1016E0007B681B680B4A93420DD10023FB600A4BB9
:1016F0005B6B094A43F040035363074B5B6B03F09A
:101700004003FB60FB6800BF1437BD465DF8047BF7
:10171000704700BF000806500038024080B5C4B0D2
:1017200000AF07F58873A3F5867318602A4B1B6812
:1017300007F10C014FF0FF32184606F0FBF90346A3
:10174000012B41D107F58873A3F582731B78022B17
:101750003CD0022B3CDC002B02D0012B3AD037E0EE
:1017600007F58873A3F582735B7887F80E3107F16C
:101770000C03013301331A6807F58873A3F58473EA
:101780001A60002387F80F3119E097F80E2197F8B7
:101790000F3142FA03F303F00103002B0AD097F84C
:1017A0000F310E4A52F8230007F1080102230022EC
:1017B00006F020F897F80F31013387F80F3197F8CA
:1017C0000F31032BE1D906E000BFAFE700BFADE763
:1017D00000BFABE700BFA9E7C4020020C802002099
:1017E00080B500AF174B184A1A60164B4FF482723F
:1017F0005A60144B00229A60124B0022DA60114B9F
:1018000000221A610F4B00225A610E4B4FF40072F6
:101810009A610C4B0022DA610A4B00221A62094BD2
:1018200000225A62074B00229A62064B0A22DA62B1
:10183000044803F0C9FF0346002B01D0FFF726FF41
:1018400000BF80BDD80200200030014080B58AB0C2
:1018500000AF786007F1140300221A605A609A60A2
:10186000DA601A617B681B68474A934240F08880BF
:1018700000233B61454B5B6C444A43F48053536403
:10188000424B5B6C03F480533B613B690023FB607C
:101890003E4B1B6B3D4A43F0010313633B4B1B6BF9
:1018A00003F00103FB60FB68E0237B610223BB6163
:1018B0000023FB6103233B6205237B6207F11403D2
:1018C0001946334802F0F4FD324B334A1A60314B6B
:1018D0004FF0C0625A602F4B00229A602D4B0022BD
:1018E000DA602C4B4FF480621A612A4B00225A6155
:1018F000284B00229A61274B0022DA61254B0022F7
:101900001A62244B00225A62224802F07BF90346F5
:10191000002B01D0FFF7BAFE7B681E4ADA641D4A2D
:101920007B6893631D4B1E4A1A601C4B4FF0C062CC
:101930005A601A4B40229A60184B0022DA60174B0B
:101940004FF480621A61154B00225A61134B00223A
:101950009A61124B0022DA61104B00221A620F4B7F
:1019600000225A620D4802F04DF90346002B01D0C7
:10197000FFF78CFE7B68094A9A64084A7B68936388
:1019800000BF2837BD4680BD00300140003802400E
:101990000000024030030020106402409003002049
:1019A0005864024080B483B000AF00237B60104BCA
:1019B0005B6C0F4A43F4804353640D4B5B6C03F440
:1019C00080437B607B6800233B60094B1B6C084AAB
:1019D00043F080531364064B1B6C03F080533B6051
:1019E0003B6800BF0C37BD465DF8047B704700BF05
:1019F0000038024080B58CB000AF78600023BB6235
:101A000000237B620023BB602F4B5B6C2E4A43F0AC
:101A1000010353642C4B5B6C03F00103BB60BB6898
:101A200007F10C0207F110031146184603F062FE9D
:101A300003F04CFE03465B00BB62BB6A234AA2FB79
:101A400003239B0C013B7B62214B224A1A60204BF3
:101A500040F2E732DA601E4A7B6A53601C4B002278
:101A60001A611B4B00229A60194B00229A61184898
:101A700004F038F8034687F82F3097F82F30002B02
:101A80001BD1134804F004FA034687F82F3097F867
:101A90002F30002B11D1192002F09CF87B680F2BFE
:101AA00008D800227968192002F068F80A4A7B6891
:101AB000136002E0012387F82F3097F82F30184683
:101AC0003037BD4680BD00BF0038024083DE1B4377
:101AD000F0030020000001406C00002080B400AF43
:101AE00000BFFDE780B500AF4FF40051024802F09F
:101AF000EBFF00BFFDE700BF000C024080B400AF69
:101B000000BFFDE780B400AF00BFFDE780B400AFC9
:101B100000BFFDE780B400AF00BFBD465DF8047BA9
:101B20007047000080B500AF024801F087FB00BF9E
:101B300080BD00BF5C02002080B500AF024804F009
:101B40006DFA00BF80BD00BFF003002080B500AF7C
:101B5000024804F063FA00BF80BD00BF8404002087
:101B600080B500AF024802F067FA00BF80BD00BF39
:101B70003003002080B500AF024802F05DFA00BFDC
:101B800080BD00BF9003002080B400AF0123184641
:101B9000BD465DF8047B704780B582B000AF7860C9
:101BA00039600AF077FD034616221A604FF0FF33C2
:101BB00018460837BD4680BD80B582B000AF78605A
:101BC0004FF0FF317868FFF7E7FF00BFFDE780B512
:101BD00086B000AFF860B9607A6000237B610AE0EC
:101BE000AFF300800146BB685A1CBA60CAB21A70D3
:101BF0007B6901337B617A697B689A42F0DB7B68A1
:101C000018461837BD4680BD80B483B000AF7860F9
:101C10004FF0FF3318460C37BD465DF8047B704724
:101C200080B483B000AF786039603B684FF40052F5
:101C30005A60002318460C37BD465DF8047B704798
:101C400080B483B000AF7860012318460C37BD46DE
:101C50005DF8047B704780B485B000AFF860B96070
:101C60007A60002318461437BD465DF8047B704740
:101C700080B586B000AF7860144A154BD31A7B61EB
:101C80007B693B61134B1B68002B02D1114B124A3D
:101C90001A60104B1A687B6813443A699A4207D25B
:101CA0000AF0F8FC03460C221A604FF0FF3309E0FB
:101CB000084B1B68FB60074B1A687B681344054A96
:101CC0001360FB6818461837BD4680BD000002202F
:101CD0000004000038040020B83E012080B400AFAA
:101CE000064BD3F88830054A43F47003C2F88830B5
:101CF00000BFBD465DF8047B704700BF00ED00E00B
:101D000080B586B000AF07F1080300221A605A6060
:101D10009A60DA603B4600221A605A601D4B4FF011
:101D200080421A601B4B8F225A601A4B00229A6025
:101D3000184B4FF0FF32DA60164B00221A61154B38
:101D400000229A61134803F0CDFE0346002B01D018
:101D5000FFF79CFC4FF48053BB6007F10803194662
:101D60000C4804F04BFA0346002B01D0FFF78EFC21
:101D700000233B6000237B603B461946054804F086
:101D800025FF0346002B01D0FFF780FC00BF18376A
:101D9000BD4680BD3C04002080B586B000AF07F191
:101DA000080300221A605A609A60DA603B460022FB
:101DB0001A605A601C4B1D4A1A601B4B8F225A60D6
:101DC000194B00229A60184BC822DA60164B002289
:101DD0001A61154B00229A61134803F083FE0346F3
:101DE000002B01D0FFF752FC4FF48053BB6007F18A
:101DF000080319460C4804F001FA0346002B01D0F1
:101E0000FFF744FC20233B6000237B603B461946E0
:101E1000054804F0DBFE0346002B01D0FFF736FC3B
:101E200000BF1837BD4680BD840400200004004078
:101E300080B584B000AF78607B681B68B3F1804FD9
:101E40000ED10023FB60164B1B6C154A43F00103B7
:101E50001364134B1B6C03F00103FB60FB681AE077
:101E60007B681B680F4A934215D10023BB600C4B63
:101E70001B6C0B4A43F002031364094B1B6C03F009
:101E80000203BB60BB68002200211D2001F076FE2A
:101E90001D2001F09FFE00BF1037BD4680BD00BF72
:101EA000003802400004004080B483B000AF034615
:101EB000FB7197F90730002B0BDBFB7903F01F0256
:101EC000074997F907305B09012000FA02F241F84F
:101ED000232000BF0C37BD465DF8047B704700BF70
:101EE00000E100E080B483B000AF03463960FB71CD
:101EF00097F90730002B0ADB3B68DAB20C4997F9F7
:101F000007301201D2B20B4483F800230AE03B6889
:101F1000DAB20849FB7903F00F03043B1201D2B295
:101F20000B441A7600BF0C37BD465DF8047B704742
:101F300000E100E000ED00E080B483B000AF786025
:101F40007B681B6803F00203022B0CBF01230023F4
:101F5000DBB218460C37BD465DF8047B704780B491
:101F600083B000AF78607B681B6803F00403042B28
:101F70000CBF01230023DBB218460C37BD465DF8C9
:101F8000047B704780B483B000AF78607B681B68C7
:101F900003F00803082B0CBF01230023DBB2184613
:101FA0000C37BD465DF8047B704780B483B000AF4A
:101FB00078607B681B6803F02003202B0CBF012393
:101FC0000023DBB218460C37BD465DF8047B704732
:101FD00080B483B000AF78607B681B6803F0800337
:101FE000802B0CBF01230023DBB218460C37BD4603
:101FF0005DF8047B704780B489B000AF78607B687F
:102000000C33FB60FB6853E8003FBB60BB6843F0E8
:102010002003FB617B680C33FA69BA617B617969E3
:10202000BA6941E800233B613B69002BE7D100BF5F
:1020300000BF2437BD465DF8047B704780B483B091
:1020400000AF78607B68DB6803F02003202B0CBFB7
:1020500001230023DBB218460C37BD465DF8047B34
:10206000704780B483B000AF78607B685B68DBB298
:1020700018460C37BD465DF8047B704780B483B0CA
:1020800000AF78600B46FB70FA787B685A6000BF3F
:102090000C37BD465DF8047B704780B483B000AF59
:1020A00078607B685B6803F00103012B01D1012399
:1020B00000E0002318460C37BD465DF8047B7047EE
:1020C00080B483B000AF78607B689B6818460C379B
:1020D000BD465DF8047B704780B582B000AF034613
:1020E000FB7100BF0748FFF773FF0346002BF9D0D1
:1020F000FB7919460348FFF7C1FF00BF0837BD460B
:1021000080BD00BF0010014080B584B000AF786092
:102110007868FEF7FDF8B8600023FB6009E07A6894
:10212000FB6813441B781846FFF7D6FFFB680133A2
:10213000FB60FA68BB689A42F1D300BF00BF10375A
:10214000BD4680BD80B582B000AF0023FB70002388
:102150007B601D48FFF7D8FF1C4B1B68002B07D086
:102160001A4B1B68F91C4FF0FF32184605F0E2FCD1
:10217000FB780D2B0BD07F2B12D17F20FFF7ACFF0C
:102180007B685A1E7A60124A0021D15413E0104A2B
:102190007B68134400221A700E48FFF7B5FF0AE06F
:1021A000FB781846FFF798FF7B685A1C7A60F9782D
:1021B000074AD15400BFFB780D2BCDD1044B1846F4
:1021C0000837BD4680BD00BFACE90008A80200206A
:1021D000CC040020B4E9000890B587B002AF786065
:1021E0000023FB731FE0FB7B591CFB7B124A1B0186
:1021F00013441A68FB7B10481B0103440C33186816
:10220000FB7B0D4C1B01234404331B68002B01D1C5
:102210000A4B00E00A4B009303460A4800F0DAFB41
:10222000FB7B0133FB73FB7B052BDCD900BF00BFBD
:102230001437BD4690BD00BF18F00008B8E900088B
:10224000CCE90008D0E9000880B582B000AF786022
:1022500000F028FC0848FFF7CEFE06212520FFF7F6
:1022600041FE2520FFF720FEFFF76CFF03461846CE
:1022700000F04EFBF8E700BF0010014080B586B0CB
:1022800000AF786039606FF000437B617B683B6131
:102290000023FB601BE03B6901333B613B691B781A
:1022A00001330F4A13441B7803F00403002B0ED0B4
:1022B00007F10C030A221946386909F0CBFB786153
:1022C000FA687B68D31A1A463B681A6003E03B69D8
:1022D0001B78002BDFD17B6918461837BD4680BDBF
:1022E000AAF0000880B500AF00BF0648FFF7D5FE92
:1022F0000346002BF9D00348FFF7E2FE03461846D9
:1023000080BD00BF0008065080B586B000AF786081
:1023100000233B610123FB6000237B617B68002B72
:1023200039D00023BB6007F1080319467868FFF72E
:10233000A5FF3861BB687A68134407F108021146AB
:102340001846FFF79BFFF8603B696FF0004293422D
:1023500004D0FB686FF00042934205D1FA683969F6
:10236000124800F037FB1EE03A69FB689A4203DD31
:102370000F48FFF7C9FE16E0FFF7B4FF0346F96800
:102380003A698A1AB3FBF2F101FB02F29A1A3B692D
:1023900013447B6103E0FFF7A5FF03467B61796986
:1023A000044800F017FB1837BD4680BDE4E900087B
:1023B00000EA000830EA0008B0B5C8B000AF07F581
:1023C0009073A3F58E731860002387F81F310023E4
:1023D000C7F818310023C7F8083107F59073A3F543
:1023E0008E731868FDF794FFC7F8100107F5907316
:1023F000A3F58C737E4A184611464FF480731A4633
:102400000AF075F907F59073A3F58E731B68013315
:102410001B780133774A13441B7803F00403002B25
:102420007BD00F2387F81F3107F59073A3F58C73CA
:1024300097F81F215A708AE0D7F818310133C7F88E
:10244000183107F59073A3F58E731A68D7F8183111
:1024500013441B78202BEFD0D7F81831C7F80C3174
:10246000002387F817314EE007F59073A3F58E73BC
:102470001A68D7F81831D41897F8172113469B001B
:1024800013445B005C4A9D1897F8172113469B0084
:1024900013445B00584A13441846FDF739FF0346BE
:1024A0001A46294620460AF09DF80346002B25D1FE
:1024B00007F59073A3F58C735B785AB297F81731D0
:1024C000012101FA03F35BB213435BB2DAB207F501
:1024D0009073A3F58C735A7097F8172113469B00DD
:1024E00013445B00444A13441846FDF711FF0246AB
:1024F000D7F8183113440133C7F8183197F817315A
:10250000013387F8173197F81731032BACD9D7F877
:102510000C21D7F818319A4218D0D7F81821D7F8DB
:1025200010319A4213D207F59073A3F58E731A688F
:10253000D7F8183113441B7801332E4A13441B7803
:1025400003F00403002B3FF47CAF00E000BF07F56D
:102550009073A3F58E731A68D7F8183113440A22C2
:102560000021184609F076FA0346C7F8083107F14A
:10257000080301330133D7F808211A60002387F8D4
:10258000163122E097F81F2197F8163142FA03F32B
:1025900003F00103002B13D007F59073A3F58C73A0
:1025A0005B785AB297F81631012101FA03F35BB256
:1025B00013435BB2DAB207F59073A3F58C735A70CC
:1025C00097F81631013387F8163197F81631032B37
:1025D000D8D90A4B186807F1080100234FF0FF32E1
:1025E00005F008F900BF07F59077BD46B0BD00BF04
:1025F00038EA0008AAF00008D8EF0008C40200205A
:10260000B0B5ADF53E7D02AF07F53C73A3F53B7366
:102610001860002387F8EF3207F53C73A3F53B738E
:102620001B68002B03D17548FFF76EFDE1E0002326
:1026300087F8EE3204E097F8EE32013387F8EE3295
:1026400097F8EE3207F53C72A2F53B72126813441C
:102650001B78202BEFD06A4B186897F8EE3207F5FD
:102660003C72A2F53B7212681344194609F090FFC0
:102670000346002B03D1012387F8EF321AE0604BA9
:10268000586897F8EE3207F53C72A2F53B72126873
:102690001344194609F07CFF0346002B06D1594824
:1026A000FFF732FD022387F8EF3203E05648FFF7C9
:1026B0002BFD9EE00023C7F8DC32002387F8E732C9
:1026C0000023C7F8E832002387F8DB3207F53C73B4
:1026D000A3F53A7318464FF434731A46002109F0F3
:1026E0004FFF4A4B4A4A4B494B4800F073F94B485D
:1026F000FFF70AFD4A48FFF707FD07F5377207F1B4
:1027000008031421184605F0B3FF034687F8E732A3
:102710000023C7F8E83248E007F53C73A3F53A71A7
:10272000D7F8E8221346DB0013449B000B44183310
:102730001B6807EE903AF8EE677A9FED3A7A67EEFB
:10274000876AD7F8DC3207EE903AB8EE677AC6EEC1
:10275000877AC7EDB87A07F53C73A3F53A71D7F8D5
:10276000E8221346DB0013449B000B4404331D682E
:10277000D7F8E002FDF738FF07F53C73A3F53A748C
:10278000D7F8E8221346DB0013449B002344203390
:102790001B88009302460B462946234800F01AF98D
:1027A000D7F8E8320133C7F8E83297F8E732D7F8BC
:1027B000E8229A42B0DB97F8EF32022B0ED197F85D
:1027C000E7321946194800F005F9194B1B6807F262
:1027D000DB214FF47A72184605F0ACF997F8EF3226
:1027E000022B03D197F8DB320D2B86D11148FFF76E
:1027F0008BFC07F53C77BD46B0BD00BF38EB000849
:102800006400002050EB000868EB000898EB00081B
:10281000ACEB0008B4EB0008BCEB0008D8EB0008F8
:1028200014EC00080000C8421CEC000838EC00085A
:10283000A802002044EC000880B485B000AF7860A6
:102840000023FB737B681C4A93422BD07B681A4A97
:1028500093422AD87B68B3F5E12F23D07B68B3F588
:10286000E12F22D87B68B3F5E13F1BD07B68B3F53D
:10287000E13F1AD87B68B3F5964F13D07B68B3F568
:10288000964F12D87B68B3F5165F0BD07B68B3F513
:10289000165F0AD87B68B3F5966F03D07B68B3F5F3
:1028A000965F02D10123FB7300BFFB7B18461437F0
:1028B000BD465DF8047B7047180C0E0080B584B0EF
:1028C00000AF78607B68002B03D10F48FFF71CFC3A
:1028D00017E00023BB6007F108030A221946786855
:1028E00009F0B8F80346FB60FB68002B05D0F868D8
:1028F000FFF7A2FF0346012B03D00448FFF704FCB7
:1029000000BF1037BD4680BD50EC00086CEC0008DD
:1029100080B586B000AF78607B681B780D2B4ED0F9
:102920000023FB7506233B610023FB753AE0FB7D2A
:10293000254A1B0113441B68FB60F868FDF7E8FC9F
:1029400003461A46F968786809F04CFE0346002BE6
:1029500025D1FB7D1C4A1B01134404331B68002B4B
:1029600019D0F868FDF7D4FC02467B6813441B7845
:10297000002B05D02021786809F026FE034600E0F0
:102980000023BB60FB7D104A1B01134404331B680A
:10299000B868984714E00D48FFF7B6FB10E0FB7DE0
:1029A0000133FB75FB7D3A699A42C0D8FB7D3A69D9
:1029B0009A4205D17968064800F00CF800E000BFA3
:1029C0001837BD4680BD00BF18F000088CEC000829
:1029D0009CEC00080FB480B59CB000AF07F17C03FD
:1029E0007B6007F108037A68B96F184609F0AEFDFD
:1029F0000346FB6607F108031846FFF785FBFB6EED
:102A000018467037BD46BDE8804004B070470000EE
:102A100080B582B000AFFF23FB7100233B601E48EE
:102A2000FFF7C3FA0346002B27D01B48FFF706FB2E
:102A30000346002B21D01848FFF77EFA0346002BEF
:102A40001BD11548FFF78BFA0346002B15D112480E
:102A5000FFF798FA0346002B0FD10F48FFF701FB51
:102A60000346FB710D4B1B68002B06D00B4B1868FF
:102A70003A46F91D002304F0A7FF3B68002B07D05E
:102A8000074B4FF080521A60BFF34F8FBFF36F8F29
:102A900000BF0837BD4680BD00100140A8020020DD
:102AA00004ED00E080B500AF114B124A1A60104BE4
:102AB0004FF4E1325A600E4B00229A600C4B002218
:102AC000DA600B4B00221A61094B0C225A61084B49
:102AD00000229A61064B0022DA61054804F068F989
:102AE0000346002B01D0FEF7D1FD00BF80BD00BF23
:102AF000300500200010014080B500AF114B124A94
:102B00001A60104B4FF4E1325A600E4B00229A606B
:102B10000C4B0022DA600B4B00221A61094B0C228D
:102B20005A61084B00229A61064B0022DA6105487F
:102B300004F03EF90346002B01D0FEF7A7FD00BFCD
:102B400080BD00BF780500200048004080B58CB0F3
:102B500000AF786007F11C0300221A605A609A6087
:102B6000DA601A617B681B68424A93424BD10023AA
:102B7000BB61414B5B6C404A43F0100353643E4BD6
:102B80005B6C03F01003BB61BB6900237B613A4BB4
:102B90001B6B394A43F001031363374B1B6B03F084
:102BA00001037B617B6900233B61334B1B6B324A22
:102BB00043F002031363304B1B6B03F002033B61D2
:102BC0003B694FF48063FB6102233B6200237B621D
:102BD0000323BB620723FB6207F11C031946274846
:102BE00001F066FC4023FB6102233B6200237B6211
:102BF0000323BB620723FB6207F11C03194620482D
:102C000001F056FC31E07B681B681E4A93422CD1D0
:102C10000023FB60184B1B6C174A43F4802313649A
:102C2000154B1B6C03F48023FB60FB680023BB6027
:102C3000114B1B6B104A43F0020313630E4B1B6BCB
:102C400003F00203BB60BB684FF44063FB610223E7
:102C50003B6200237B620323BB620723FB6207F115
:102C60001C031946064801F023FC00BF3037BD465F
:102C700080BD00BF0010014000380240000002404B
:102C80000004024000480040DFF834D0FFF726F887
:102C90000C480D490D4A002302E0D458C4500433B7
:102CA000C4188C42F9D30A4A0A4C002301E013608D
:102CB0000432A242FBD309F0F3FCFEF7D9FB7047C4
:102CC00000000220000000204002002028F400083C
:102CD00040020020B83E0120FEE7000080B500AFB2
:102CE0000E4B1B680D4A43F4007313600B4B1B68BB
:102CF0000A4A43F480631360084B1B68074A43F495
:102D000080731360032000F019FF0F20FEF772FE9E
:102D1000FEF748FE0023184680BD00BF003C02407D
:102D200080B400AF064B1B781A46064B1B68134451
:102D3000044A136000BFBD465DF8047B704700BFC6
:102D400070000020C005002080B400AF034B1B685A
:102D50001846BD465DF8047B704700BFC0050020E3
:102D600080B584B000AF78600023FB737B68002BD4
:102D700001D101235CE17B681B688E4A93420ED02F
:102D80007B681B688C4A934209D07B681B688B4A1E
:102D9000934204D04FF4A1718948FEF77DFC7B6813
:102DA0005B68002B13D07B685B68B3F5803F0ED067
:102DB0007B685B68B3F5003F09D07B685B68B3F55F
:102DC000403F04D040F243117D48FEF765FC7B682C
:102DD0009B68002B13D07B689B68B3F1807F0ED07B
:102DE0007B689B68B3F1007F09D07B689B68B3F177
:102DF000407F04D04FF4A2717148FEF74DFC7B6810
:102E00001B69002B08D07B681B69012B04D040F2A2
:102E100045116B48FEF740FC7B681B7E002B08D0F9
:102E20007B681B7E012B04D04FF4A3716448FEF72E
:102E300033FC7B689B6A002B54D07B689B6AB3F1A0
:102E4000807F4FD07B689B6AB3F1007F4AD07B685C
:102E50009B6AB3F1407F45D07B689B6AB3F1806F7A
:102E600040D07B689B6AB3F1A06F3BD07B689B6AC4
:102E7000B3F1C06F36D07B689B6AB3F1E06F31D09D
:102E80007B689B6AB3F1006F2CD07B689B6AB3F1BF
:102E9000106F27D07B689B6AB3F1206F22D07B68CC
:102EA0009B6AB3F1306F1DD07B689B6AB3F1406FB2
:102EB00018D07B689B6AB3F1506F13D07B689B6A14
:102EC000B3F1606F0ED07B689B6AB3F1706F09D06D
:102ED0007B689B6A3B4A934204D040F247113848D2
:102EE000FEF7DAFB7B68DB68002B09D07B68DB68C8
:102EF000B3F5006F04D04FF4A4713148FEF7CCFB5A
:102F00007B68DB69002B03D07B68DB69102B04D95D
:102F100040F249112A48FEF7BFFB7B6893F8303036
:102F2000002B09D07B6893F83030012B04D04FF48C
:102F3000A5712348FEF7B0FB7B685B69012B0CD0C1
:102F40007B685B69002B08D07B685B69022B04D02F
:102F500040F24B111A48FEF79FFB7B6893F8203034
:102F6000002B09D07B6893F82030012B04D04FF45C
:102F7000A6711348FEF790FB7B689B6A114A934247
:102F800022D07B68DB6A002B1ED07B68DB6AB3F142
:102F9000805F19D07B68DB6AB3F1005F14D07B6877
:102FA000DB6AB3F1405F0FD04FF4A8710448FEF71D
:102FB00073FB09E000200140002101400022014094
:102FC000B0EC00080100000F7B681B6C002B09D1DE
:102FD0007868FEF739F87B6800225A647B68002223
:102FE00083F83C207B681B6C03F01003002B18D186
:102FF0007B681B6C23F4885323F0020343F0020226
:103000007B681A64786800F0D7FB7B6800225A64FA
:103010007B681B6C23F0030343F001027B681A6496
:1030200001E00123FB737B68002283F83C20FB7BDB
:1030300018461037BD4680BD80B584B000AF7860BB
:103040000023BB607B681B7E002B08D07B681B7E47
:10305000012B04D040F213417148FEF71DFB7B6841
:10306000DB6A002B13D07B68DB6AB3F1805F0ED084
:103070007B68DB6AB3F1005F09D07B68DB6AB3F180
:10308000405F04D040F214416548FEF705FB7B68C1
:1030900093F83C30012B01D10223BDE07B68012273
:1030A00083F83C207B681B689B6803F00103012BBD
:1030B00018D07B681B689A687B681B6842F0010225
:1030C0009A60584B1B68584AA2FB03239A0C13467C
:1030D0005B001344BB6002E0BB68013BBB60BB68A4
:1030E000002BF9D17B681B689B6803F00103012B5F
:1030F00040F085807B681B6C23F4E06323F00103C0
:1031000043F480727B681A647B681B685B6803F415
:103110008063002B07D07B681B6C23F4405343F47F
:1031200080527B681A647B681B6C03F48053B3F590
:10313000805F06D17B685B6C23F006027B685A6473
:1031400002E07B6800225A647B68002283F83C20FE
:10315000364BFB607B681B686FF022021A607B684D
:103160001B685B687A68126843F0806343F0200351
:103170005360FB685B6803F01F03002B2AD17B6858
:103180001B682B4A934215D07B681B68294A9342DF
:1031900005D1264B5B6803F01F03002B0AD07B6828
:1031A0001B68254A934236D1204B5B6803F010031D
:1031B000002B30D17B681B689B6803F04053002BC9
:1031C00029D17B681B689A687B681B6842F0804243
:1031D0009A6020E07B681B68154A93421BD17B688C
:1031E0001B689B6803F04053002B14D17B681B685D
:1031F0009A687B681B6842F080429A600BE07B68AB
:103200001B6C43F010027B681A647B685B6C43F0B4
:1032100001027B685A64002318461037BD4680BD02
:10322000B0EC00086000002083DE1B430023014057
:1032300000200140002101400022014080B586B0FD
:1032400000AF786000237B6100233B617B681B68D3
:103250001B68FB607B681B685B68BB607B681B7ED0
:10326000002B08D07B681B7E012B04D040F2B741B5
:103270009048FEF711FA7B68DB69002B03D07B686E
:10328000DB69102B04D94FF497618A48FEF704FAE2
:103290007B685B69012B0CD07B685B69002B08D0D5
:1032A0007B685B69022B04D040F2B9418148FEF78C
:1032B000F3F9FB6803F002037B61BB6803F02003B2
:1032C0003B617B69002B49D03B69002B46D07B6872
:1032D0001B6C03F01003002B05D17B681B6C43F4BF
:1032E00000727B681A647B681B689B6803F040531C
:1032F000002B2BD17B681B7E002B27D17B681B68A2
:10330000DB6A03F47003002B06D07B681B689B68A4
:1033100003F48063002B19D17B681B685A687B68B3
:103320001B6822F020025A607B681B6C23F48072B9
:103330007B681A647B681B6C03F48053002B05D1F7
:103340007B681B6C43F001027B681A647868FDF7A8
:103350002FFF7B681B686FF012021A60FB6803F096
:1033600004037B61BB6803F080033B617B69002B36
:1033700057D03B69002B54D07B681B6C03F01003C3
:10338000002B05D17B681B6C43F400527B681A64E8
:103390007B681B689B6803F44013002B39D17B6862
:1033A0001B689B6B03F44013002B06D07B681B68E3
:1033B0009B6803F48063002B2BD17B681B685B68E0
:1033C00003F48063002B24D17B681B689B6803F0A7
:1033D0004053002B1DD17B681B7E002B19D17B68CD
:1033E0001B685A687B681B6822F080025A607B6801
:1033F0001B6C23F480527B681A647B681B6C03F49B
:103400008073002B05D17B681B6C43F001027B6845
:103410001A64786800F0DAFA7B681B686FF00C02B7
:103420001A60FB6803F001037B61BB6803F0400393
:103430003B617B69002B17D03B69002B14D07B6864
:103440001B681B6803F00103012B0DD17B681B6C0B
:1034500043F480327B681A64786800F03AF87B683D
:103460001B686FF001021A60FB6803F020037B61A8
:10347000BB6803F080633B617B69002B15D03B691F
:10348000002B12D07B685B6C43F002027B685A64AD
:103490007B681B686FF020021A60786800F023F8E0
:1034A0007B681B686FF020021A6000BF1837BD46AA
:1034B00080BD00BFB0EC000880B483B000AF78607E
:1034C0007B681B68DB6C18460C37BD465DF8047BD7
:1034D000704780B483B000AF786000BF0C37BD4642
:1034E0005DF8047B704780B483B000AF786000BFA4
:1034F0000C37BD465DF8047B7047000080B584B092
:1035000000AF786039600023BB603B681B68122BFA
:1035100004D940F28B616F48FEF7BEF83B685B68E8
:10352000002B03D03B685B68102B04D940F28C6100
:103530006848FEF7B1F83B689B68002B20D03B68D9
:103540009B68012B1CD03B689B68022B18D03B6802
:103550009B68032B14D03B689B68042B10D03B68FE
:103560009B68052B0CD03B689B68062B08D03B68FA
:103570009B68072B04D040F28D615648FEF78CF80B
:103580007B6893F83C30012B01D1022307E17B6873
:10359000012283F83C203B681B68092B25D97B68F6
:1035A0001B68D9683B681B689BB21A4613465B00D0
:1035B00013441E3B072202FA03F3DA437B681B68BD
:1035C0000A40DA607B681B68D9683B689A683B6888
:1035D0001B689BB2184603465B0003441E3B9A409F
:1035E0007B681B680A43DA6022E07B681B68196904
:1035F0003B681B689BB21A4613465B0013440722C4
:1036000002FA03F3DA437B681B680A401A617B689D
:103610001B6819693B689A683B681B689BB218462F
:1036200003465B0003449A407B681B680A431A61A7
:103630003B685B68062B24D87B681B68596B3B682A
:103640005A6813469B001344053B1F2202FA03F3FA
:10365000DA437B681B680A405A637B681B68596BB6
:103660003B681B689BB218463B685A6813469B0030
:103670001344053B00FA03F27B681B680A435A6354
:103680004EE03B685B680C2B26D87B681B68196B87
:103690003B685A6813469B001344233B1F2202FADF
:1036A00003F3DA437B681B680A401A637B681B6874
:1036B000196B3B681B689BB218463B685A681346F7
:1036C0009B001344233B00FA03F27B681B680A4308
:1036D0001A6325E0B0EC00087B681B68D96A3B6878
:1036E0005A6813469B001344413B1F2202FA03F31E
:1036F000DA437B681B680A40DA627B681B68D96A18
:103700003B681B689BB218463B685A6813469B008F
:103710001344413B00FA03F27B681B680A43DA62F8
:10372000214BFB607B681B68204A934209D13B68B0
:103730001B68122B05D1FB685B6843F48002FB68B1
:103740005A607B681B68194A934223D13B681B6807
:10375000102B03D03B681B68112B1BD1FB685B68E7
:1037600043F40002FB685A603B681B68102B11D1C0
:103770000F4B1B680F4AA2FB03239A0C13469B00B6
:1037800013445B00BB6002E0BB68013BBB60BB68ED
:10379000002BF9D17B68002283F83C2000231846D7
:1037A0001037BD4680BD00BF00230140002001400E
:1037B0006000002083DE1B4380B584B000AF7860DA
:1037C0007F4BFB60FB685B6823F44032FB685A6008
:1037D000FB685A687B685B681A43FB685A607B68C1
:1037E0001B685A687B681B6822F480725A607B6889
:1037F0001B6859687B681B691A027B681B680A434F
:103800005A607B681B685A687B681B6822F04072AC
:103810005A607B681B6859687B689A687B681B687C
:103820000A435A607B681B689A687B681B6822F4AD
:1038300000629A607B681B6899687B68DA687B68BD
:103840001B680A439A607B689B6A5E4A934222D057
:103850007B681B689A687B681B6822F070629A60BC
:103860007B681B6899687B689A6A7B681B680A4357
:103870009A607B681B689A687B681B6822F04052DC
:103880009A607B681B6899687B68DA6A7B681B684A
:103890000A439A600FE07B681B689A687B681B6824
:1038A00022F070629A607B681B689A687B681B686C
:1038B00022F040529A607B681B689A687B681B689C
:1038C00022F002029A607B681B6899687B681B7E05
:1038D0005A007B681B680A439A607B6893F8203023
:1038E000002B28D07B685B6A002B03D07B685B6A67
:1038F000082B04D94FF4F5613348FDF7CDFE7B6802
:103900001B685A687B681B6842F400625A607B68D7
:103910001B685A687B681B6822F460425A607B68A7
:103920001B6859687B685B6A013B5A037B681B68AC
:103930000A435A6007E07B681B685A687B681B680B
:1039400022F400625A607B681B68DA6A7B681B6835
:1039500022F47002DA627B681B68D96A7B68DB69D3
:10396000013B1A057B681B680A43DA627B681B68A7
:103970009A687B681B6822F400729A607B681B68F7
:1039800099687B6893F830305A027B681B680A4359
:103990009A607B681B689A687B681B6822F4806267
:1039A0009A607B681B6899687B685B699A027B6890
:1039B0001B680A439A6000BF1037BD4680BD00BF38
:1039C000002301400100000FB0EC000880B483B078
:1039D00000AF786000BF0C37BD465DF8047B7047D0
:1039E00080B485B000AF78607B6803F00703FB60AC
:1039F0000C4BDB68BB60BA684FF6FF031340BB603B
:103A0000FB681A02BB68134343F0BF6343F40033FF
:103A1000BB60044ABB68D36000BF1437BD465DF885
:103A2000047B704700ED00E080B400AF044BDB681E
:103A30001B0A03F007031846BD465DF8047B704778
:103A400000ED00E080B483B000AF0346FB7197F94E
:103A50000730002B0BDBFB7903F01F02074997F9B6
:103A600007305B09012000FA02F241F8232000BF71
:103A70000C37BD465DF8047B704700BF00E100E0F5
:103A800080B483B000AF03463960FB7197F907300B
:103A9000002B0ADB3B68DAB20C4997F907301201B8
:103AA000D2B20B4483F800230AE03B68DAB208493B
:103AB000FB7903F00F03043B1201D2B20B441A76D8
:103AC00000BF0C37BD465DF8047B704700E100E0A5
:103AD00000ED00E080B489B000AFF860B9607A60B2
:103AE000FB6803F00703FB61FB69C3F10703042BC9
:103AF00028BF0423BB61FB690433062B02D9FB6991
:103B0000033B00E000237B614FF0FF32BB6902FA08
:103B100003F3DA43BB681A407B699A404FF0FF31E8
:103B20007B6901FA03F3D9437B680B4013431846C2
:103B30002437BD465DF8047B7047000080B582B035
:103B400000AF78607B68072B0FD07B68062B0CD00A
:103B50007B68052B09D07B68042B06D07B68032B80
:103B600003D090210448FDF797FD7868FFF738FFF0
:103B700000BF0837BD4680BDE8EC000880B586B0C0
:103B800000AF0346B9607A60FB7300237B617B68FA
:103B90000F2B03D9A8210E48FDF77EFDBB680F2B24
:103BA00003D9A9210A48FDF777FDFFF73DFF7861AA
:103BB0007A68B9687869FFF78DFF024697F90F3088
:103BC00011461846FFF75CFF00BF1837BD4680BDA1
:103BD000E8EC000880B582B000AF0346FB7197F9AE
:103BE0000730002B03DABC210548FDF755FD97F996
:103BF00007301846FFF726FF00BF0837BD4680BDD7
:103C0000E8EC000880B586B000AF786000237B61E7
:103C1000FFF79AF838617B68002B01D1012303E29A
:103C20007B681B688B4A93424ED07B681B688A4A2C
:103C3000934249D07B681B68884A934244D07B6892
:103C40001B68874A93423FD07B681B68854A934232
:103C50003AD07B681B68844A934235D07B681B68E6
:103C6000824A934230D07B681B68814A93422BD0B2
:103C70007B681B687F4A934226D07B681B687E4A1C
:103C8000934221D07B681B687C4A93421CD07B689E
:103C90001B687B4A934217D07B681B68794A934222
:103CA00012D07B681B68784A93420DD07B681B68F2
:103CB000764A934208D07B681B68754A934203D0CA
:103CC000B7217448FDF7E8FC7B685B68002B26D0C1
:103CD0007B685B68B3F1007F21D07B685B68B3F1E0
:103CE000806F1CD07B685B68B3F1C06F17D07B68B6
:103CF0005B68B3F1006F12D07B685B68B3F1206F33
:103D00000DD07B685B68B3F1406F08D07B685B685F
:103D1000B3F1606F03D0B8215E48FDF7BDFC7B684E
:103D20009B68002B0BD07B689B68402B07D07B687F
:103D30009B68802B03D0B9215648FDF7ADFC7B680A
:103D4000DB68B3F5007F07D07B68DB68002B03D00E
:103D5000BA215048FDF7A0FC7B681B69B3F5806F62
:103D600007D07B681B69002B03D0BB214948FDF7B6
:103D700093FC7B685B69002B0DD07B685B69B3F5B6
:103D8000006F08D07B685B69B3F5805F03D0BC210E
:103D90004048FDF781FC7B689B69002B0DD07B6858
:103DA0009B69B3F5005F08D07B689B69B3F5804FD2
:103DB00003D0BD213748FDF76FFC7B68DB69002B22
:103DC0000CD07B68DB69B3F5807F07D07B68DB694B
:103DD000202B03D0BE212F48FDF75EFC7B681B6AB9
:103DE000002B12D07B681B6AB3F5803F0DD07B6837
:103DF0001B6AB3F5003F08D07B681B6AB3F5403FF0
:103E000003D0BF212348FDF747FC7B685B6A002B8A
:103E100007D07B685B6A042B03D0C0211D48FDF7E7
:103E20003BFC7B685B6A002B64D07B689B6A002B41
:103E300032D07B689B6A012B2ED07B689B6A022B59
:103E40002AD07B689B6A032B26D0C5211148FDF739
:103E500023FC21E0106002402860024040600240E4
:103E6000586002407060024088600240A0600240DA
:103E7000B86002401064024028640240406402407E
:103E8000586402407064024088640240A0640240AA
:103E9000B864024024ED00087B68DB6A002B12D076
:103EA0007B68DB6AB3F5000F0DD07B68DB6AB3F18A
:103EB000807F08D07B68DB6AB3F1C07F03D0C62166
:103EC0005B48FDF7E9FB7B681B6B002B12D07B681E
:103ED0001B6BB3F5001F0DD07B681B6BB3F5800F18
:103EE00008D07B681B6BB3F5C00F03D0C7215048C7
:103EF000FDF7D2FB7B68022283F835207B68002225
:103F000083F834207B681B681A687B681B6822F082
:103F100001021A600FE0FEF717FF02463B69D31A51
:103F2000052B08D97B6820225A657B68032283F819
:103F30003520032378E07B681B681B6803F00103CE
:103F4000002BE8D17B681B681B687B617A69394B61
:103F500013407B617B685A687B689B681A437B6867
:103F6000DB681A437B681B691A437B685B691A43E9
:103F70007B689B691A437B68DB691A437B681B6A11
:103F800013437A6913437B617B685B6A042B07D117
:103F90007B68DA6A7B681B6B13437A6913437B6126
:103FA0007B681B687A691A607B681B685B697B6148
:103FB0007B6923F007037B617B685B6A7A69134343
:103FC0007B617B685B6A042B17D17B689B6A7A698B
:103FD00013437B617B68DB6A002B0ED0786800F0AE
:103FE000EBF90346002B08D07B6840225A657B68BA
:103FF000012283F83520012316E07B681B687A696B
:104000005A61786800F0A2F90346FB607B68DB6DBB
:104010003F229A40FB689A607B6800225A657B6861
:10402000012283F83520002318461837BD4680BD8D
:1040300024ED00083F8010F080B586B000AF7860B6
:104040000023BB608E4B1B688E4AA2FB03239B0A96
:104050007B617B689B6D3B613B691B68FB607B6898
:10406000DB6D08229A40FB681340002B1AD07B6856
:104070001B681B6803F00403002B13D07B681B68CC
:104080001A687B681B6822F004021A607B68DB6D8B
:1040900008229A403B699A607B685B6D43F001029D
:1040A0007B685A657B68DB6D01229A40FB68134090
:1040B000002B12D07B681B685B6903F08003002B28
:1040C0000BD07B68DB6D01229A403B699A607B686C
:1040D0005B6D43F002027B685A657B68DB6D0422EE
:1040E0009A40FB681340002B12D07B681B681B684A
:1040F00003F00203002B0BD07B68DB6D04229A4097
:104100003B699A607B685B6D43F004027B685A658B
:104110007B68DB6D10229A40FB681340002B43D074
:104120007B681B681B6803F00803002B3CD07B688E
:10413000DB6D10229A403B699A607B681B681B68A4
:1041400003F48023002B18D07B681B681B6803F4E2
:104150000023002B08D17B681B6C002B24D07B68CC
:104160001B6C786898471FE07B689B6C002B1BD00A
:104170007B689B6C7868984716E07B681B681B68B7
:1041800003F48073002B07D17B681B681A687B6877
:104190001B6822F008021A607B681B6C002B03D09E
:1041A0007B681B6C786898477B68DB6D20229A409F
:1041B000FB681340002B00F08F807B681B681B6836
:1041C00003F01003002B00F087807B68DB6D20225A
:1041D0009A403B699A607B6893F83530DBB2052BD7
:1041E00036D17B681B681A687B681B6822F0160250
:1041F0001A607B681B685A697B681B6822F0800222
:104200005A617B681B6C002B03D17B689B6C002B75
:1042100007D07B681B681A687B681B6822F008025D
:104220001A607B68DB6D3F229A403B699A607B682D
:10423000012283F835207B68002283F834207B68D4
:104240001B6D002B7ED07B681B6D7868984779E0EA
:104250007B681B681B6803F48023002B1DD07B68E0
:104260001B681B6803F40023002B0DD17B685B6C7B
:10427000002B31D07B685B6C786898472CE000BFDE
:1042800060000020B5814E1B7B68DB6B002B23D0C8
:104290007B68DB6B786898471EE07B681B681B684F
:1042A00003F48073002B0FD17B681B681A687B684E
:1042B0001B6822F010021A607B68012283F8352007
:1042C0007B68002283F834207B68DB6B002B03D0F3
:1042D0007B68DB6B786898477B685B6D002B32D01E
:1042E0007B685B6D03F00103002B22D07B68052205
:1042F00083F835207B681B681A687B681B6822F08E
:1043000001021A60BB680133BB607A699A4207D325
:104310007B681B681B6803F00103002BF2D100E0EF
:1043200000BF7B68012283F835207B68002283F878
:1043300034207B68DB6C002B05D07B68DB6C7868F5
:10434000984700E000BF1837BD4680BD80B485B0F7
:1043500000AF78607B681B68DBB2103B144AA2FB9D
:1043600003231B09FB60134AFB6813441B781A469E
:104370007B68DA65FB68032B09D97B681B6823F42B
:104380007F7323F003031A1D7B689A6507E07B683F
:104390001B6823F47F7323F003037A6893657B68BB
:1043A0009B6D18461437BD465DF8047B704700BF0F
:1043B000ABAAAAAA78F0000880B485B000AF7860F4
:1043C0000023FB737B689B6ABB607B689B69002B47
:1043D0001FD1BB68032B56D801A252F823F000BFAF
:1043E000F143000803440008F14300088744000833
:1043F0007B68DB6A03F08073002B46D00123FB73DC
:1044000043E07B68DB6AB3F1C07F40D10123FB73DB
:104410003DE07B689B69B3F5005F21D1BB68032B4E
:1044200037D801A252F823F0394400083F4400086D
:1044300039440008514400080123FB7330E07B68D5
:10444000DB6A03F08073002B25D00123FB7322E08D
:104450007B68DB6AB3F1C07F1FD10123FB731CE0D3
:10446000BB68022B03D9BB68032B03D018E00123E0
:10447000FB7315E07B68DB6A03F08073002B0ED0C2
:104480000123FB730BE000BF0AE000BF08E000BFA0
:1044900006E000BF04E000BF02E000BF00E000BF94
:1044A000FB7B18461437BD465DF8047B704700BFA0
:1044B00080B588B000AF7860396000237B6100234D
:1044C0003B610023BB617B68384A934223D07B6801
:1044D000374A93421FD07B68364A93421BD07B6891
:1044E000354A934217D07B68344A934213D07B6895
:1044F000334A93420FD07B68324A93420BD07B6899
:10450000314A934207D07B68304A934203D0AC21B2
:104510002F48FDF7C1F83B681B689BB2002B04D005
:104520003B681B68B3F5803F03D3AD212848FDF7F6
:10453000B3F83B685B68002B35D03B685B68012BA8
:1045400031D03B685B68112B2DD03B685B68022B38
:1045500029D03B685B68122B25D03B685B68B3F5BC
:10456000881F20D03B685B68B3F5041F1BD03B68F5
:104570005B68B3F5441F16D03B685B68B3F5901FCA
:1045800011D03B685B68B3F5081F0CD03B685B68D3
:10459000B3F5481F07D03B685B68032B03D0AE21FF
:1045A0000B48FDF779F80023FB6141E2000002406F
:1045B0000004024000080240000C024000100240CB
:1045C0000014024000180240001C0240002002407B
:1045D0005CED00080122FB6902FA03F37B613B6892
:1045E0001B687A6913403B613A697B699A4240F0E3
:1045F0001C823B685B6803F00303012B05D03B681A
:104600005B6803F00303022B44D13B68DB68002B9B
:104610000FD03B68DB68012B0BD03B68DB68022BBB
:1046200007D03B68DB68032B03D0C0218148FDF72E
:1046300033F87B689B68BB61FB695B00032202FA6D
:1046400003F3DB43BA691340BB613B68DA68FB697B
:104650005B0002FA03F3BA691343BB617B68BA6972
:104660009A607B685B68BB610122FB6902FA03F315
:10467000DB43BA691340BB613B685B681B0903F00D
:104680000102FB6902FA03F3BA691343BB617B6859
:10469000BA695A603B685B6803F00303032B27D0B9
:1046A0003B689B68002B0BD03B689B68012B07D0B5
:1046B0003B689B68022B03D0D1215E48FCF7ECFFDE
:1046C0007B68DB68BB61FB695B00032202FA03F3D2
:1046D000DB43BA691340BB613B689A68FB695B00C6
:1046E00002FA03F3BA691343BB617B68BA69DA6003
:1046F0003B685B6803F00303022B40F0C1803B681A
:104700001B69002B00F098803B681B69092B00F0A7
:1047100093803B681B69002B00F08E803B681B690F
:10472000002B00F089803B681B69002B00F084801F
:104730003B681B69002B7FD03B681B69012B7BD03A
:104740003B681B69012B77D03B681B69022B73D038
:104750003B681B69022B6FD03B681B69022B6BD037
:104760003B681B69032B67D03B681B69042B63D034
:104770003B681B69042B5FD03B681B69042B5BD033
:104780003B681B69052B57D03B681B69052B53D031
:104790003B681B69092B4FD03B681B69062B4BD02C
:1047A0003B681B69092B47D03B681B69072B43D02B
:1047B0003B681B69072B3FD03B681B69072B3BD02D
:1047C0003B681B69082B37D03B681B69082B33D02B
:1047D0003B681B69082B2FD03B681B69092B2BD02A
:1047E0003B681B69092B27D03B681B690A2B23D028
:1047F0003B681B690A2B1FD03B681B690B2B1BD026
:104800003B681B690C2B17D03B681B690C2B13D022
:104810003B681B690D2B0FD03B681B690C2B0BD021
:104820003B681B690F2B07D0DE210248FCF734FFE1
:1048300002E000BF5CED0008FB69DA087B68083223
:1048400053F82230BB61FB6903F007039B000F2282
:1048500002FA03F3DB43BA691340BB613B681A6990
:10486000FB6903F007039B0002FA03F3BA691343E1
:10487000BB61FB69DA087B680832B96943F822102A
:104880007B681B68BB61FB695B00032202FA03F3D0
:10489000DB43BA691340BB613B685B6803F003020A
:1048A000FB695B0002FA03F3BA691343BB617B68DF
:1048B000BA691A603B685B6803F44033002B00F070
:1048C000B4800023FB605F4B5B6C5E4A43F4804323
:1048D00053645C4B5B6C03F48043FB60FB685A4A97
:1048E000FB699B08023352F82330BB61FB6903F07C
:1048F00003039B000F2202FA03F3DB43BA69134060
:10490000BB617B68514A93422BD07B68504A9342EB
:1049100025D07B684F4A93421FD07B684E4A934212
:1049200019D07B684D4A934213D07B684C4A93421E
:104930000DD07B684B4A934207D07B684A4A93422A
:1049400001D107230EE008230CE006230AE005232B
:1049500008E0042306E0032304E0022302E001232D
:1049600000E00023FA6902F0030292009340BA6962
:104970001343BB613449FB699B080233BA6941F8B0
:1049800023203A4B9B68BB613B69DB43BA69134008
:10499000BB613B685B6803F48013002B03D0BA69EA
:1049A0003B691343BB61314ABB6993602F4BDB68A2
:1049B000BB613B69DB43BA691340BB613B685B6821
:1049C00003F40013002B03D0BA693B691343BB61A6
:1049D000264ABB69D360254B5B68BB613B69DB43FF
:1049E000BA691340BB613B685B6803F40033002B7A
:1049F00003D0BA693B691343BB611C4ABB6953606E
:104A00001A4B1B68BB613B69DB43BA691340BB614E
:104A10003B685B6803F48033002B03D0BA693B69C1
:104A20001343BB61114ABB691360FB690133FB612E
:104A3000FB690F2B7FF6CEAD00BF00BF2037BD4610
:104A400080BD00BF00380240003801400000024035
:104A50000004024000080240000C02400010024026
:104A60000014024000180240001C0240003C0140BB
:104A700080B582B000AF78600B467B8013467B70B8
:104A80007B88002B04D140F29D110E48FCF704FEF8
:104A90007B78002B07D07B78012B04D04FF4CF71AB
:104AA0000848FCF7F9FD7B78002B03D07A887B68F7
:104AB0009A6103E07B881A047B689A6100BF08371B
:104AC000BD4680BD5CED000880B584B000AF786065
:104AD0000B467B807B88002B04D14FF4DB710A48A6
:104AE000FCF7DAFD7B685B69FB607A88FB68134042
:104AF0001A04FB68D9437B880B401A437B689A6190
:104B000000BF1037BD4680BD5CED000880B586B0A3
:104B100000AF78607B68002B01D1012318E37B682C
:104B20001B680F2B03D9E6219748FCF7B5FD7B687E
:104B30001B6803F00103002B00F088807B685B6832
:104B4000002B0DD07B685B68B3F5803F08D07B6895
:104B50005B68B3F5A02F03D0EB218B48FCF79CFDDD
:104B60008A4B9B6803F00C03042B0CD0874B9B688B
:104B700003F00C03082B12D1844B5B6803F4800311
:104B8000B3F5800F0BD1814B1B6803F40033002B6E
:104B90005BD07B685B68002B57D10123D8E27B6830
:104BA0005B68B3F5803F06D1784B1B68774A43F4C6
:104BB000803313601DE07B685B68B3F5A02F0CD1D8
:104BC000724B1B68714A43F4802313606F4B1B6860
:104BD0006E4A43F4803313600BE06C4B1B686B4AE6
:104BE00023F480331360694B1B68684A23F48023E5
:104BF00013607B685B68002B13D0FEF7A5F8386163
:104C000008E0FEF7A1F802463B69D31A642B01D9EC
:104C100003239DE25D4B1B6803F40033002BF0D0AF
:104C200014E0FEF791F8386108E0FEF78DF80246CF
:104C30003B69D31A642B01D9032389E2534B1B68C8
:104C400003F40033002BF0D100E000BF7B681B6849
:104C500003F00203002B79D07B68DB68002B08D0BF
:104C60007B68DB68012B04D040F21D114648FCF73D
:104C700013FD7B681B691F2B04D94FF48F714248C9
:104C8000FCF70AFD414B9B6803F00C03002B0BD093
:104C90003E4B9B6803F00C03082B1CD13B4B5B681D
:104CA00003F48003002B16D1384B1B6803F002037A
:104CB000002B05D07B68DB68012B01D0012347E284
:104CC000324B1B6823F0F8027B681B69DB002F491D
:104CD00013430B603AE07B68DB68002B20D02C4B41
:104CE00001221A60FEF730F8386108E0FEF72CF870
:104CF00002463B69D31A022B01D9032328E2234B36
:104D00001B6803F00203002BF0D0204B1B6823F03C
:104D1000F8027B681B69DB001C4913430B6015E03C
:104D20001B4B00221A60FEF70FF8386108E0FEF70F
:104D30000BF802463B69D31A022B01D9032307E281
:104D4000124B1B6803F00203002BF0D17B681B6839
:104D500003F00803002B45D07B685B69002B08D06B
:104D60007B685B69012B04D04FF4AF710648FCF7F8
:104D700093FC7B685B69002B1ED0064B01221A60F6
:104D8000FDF7E2FF386110E098ED000800380240BE
:104D900000004742800E4742FDF7D6FF02463B69BE
:104DA000D31A022B01D90323D2E15E4B5B6F03F0D0
:104DB0000203002BF0D015E05B4B00221A60FDF7D8
:104DC000C3FF386108E0FDF7BFFF02463B69D31A15
:104DD000022B01D90323BBE1524B5B6F03F00203AB
:104DE000002BF0D17B681B6803F00403002B00F05C
:104DF000B0800023FB757B689B68002B0CD07B6820
:104E00009B68012B08D07B689B68052B04D04FF46E
:104E1000C5714648FCF740FC424B1B6C03F08053C5
:104E2000002B0FD10023BB603E4B1B6C3D4A43F06F
:104E3000805313643B4B1B6C03F08053BB60BB6817
:104E40000123FB753A4B1B6803F48073002B18D1C8
:104E5000374B1B68364A43F480731360FDF774FFC9
:104E6000386108E0FDF770FF02463B69D31A022B58
:104E700001D903236CE12E4B1B6803F48073002BD4
:104E8000F0D07B689B68012B06D1264B1B6F254A0F
:104E900043F0010313671CE07B689B68052B0CD172
:104EA000204B1B6F1F4A43F0040313671D4B1B6FFE
:104EB0001C4A43F0010313670BE01A4B1B6F194A9E
:104EC00023F001031367174B1B6F164A23F00403EB
:104ED00013677B689B68002B15D0FDF735FF3861A1
:104EE0000AE0FDF731FF02463B69D31A41F28832EE
:104EF000934201D903232BE10A4B1B6F03F00203FA
:104F0000002BEED01CE0FDF71FFF386112E0FDF72B
:104F10001BFF02463B69D31A41F28832934209D9FA
:104F2000032315E100380240800E474298ED000847
:104F300000700040884B1B6F03F00203002BE6D18A
:104F4000FB7D012B05D1844B1B6C834A23F08053DE
:104F500013647B689B69002B0CD07B689B69012BD9
:104F600008D07B689B69022B04D040F2CD117B48AE
:104F7000FCF792FB7B689B69002B00F0E880764B86
:104F80009B6803F00C03082B00F0A9807B689B69E9
:104F9000022B40F08D807B68DB69002B09D07B6899
:104FA000DB69B3F5800F04D04FF4EB716B48FCF76D
:104FB00073FB7B681B6A012B03D97B681B6A3F2B41
:104FC00004D940F2D7116548FCF766FB7B685B6A41
:104FD000312B04D97B685B6AB3F5D87F04D94FF4D1
:104FE000EC715E48FCF758FB7B689B6A022B10D083
:104FF0007B689B6A042B0CD07B689B6A062B08D0CD
:105000007B689B6A082B04D040F2D9115348FCF707
:1050100043FB7B68DB6A012B03D97B68DB6A0F2BC0
:1050200004D94FF4ED714D48FCF736FB4C4B002290
:105030001A60FDF789FE386108E0FDF785FE02463B
:105040003B69D31A022B01D9032381E0424B1B6831
:1050500003F00073002BF0D17B68DA697B681B6A70
:105060001A437B685B6A9B011A437B689B6A5B08F7
:10507000013B1B041A437B68DB6A1B06364913435A
:105080004B60374B01221A60FDF75EFE386108E085
:10509000FDF75AFE02463B69D31A022B01D90323BE
:1050A00056E02D4B1B6803F00073002BF0D04EE050
:1050B0002B4B00221A60FDF747FE386108E0FDF730
:1050C00043FE02463B69D31A022B01D903233FE07A
:1050D000214B1B6803F00073002BF0D137E07B6895
:1050E0009B69012B01D1012332E01B4B5B68FB6004
:1050F0007B689B69012B28D0FB6803F480027B68E6
:10510000DB699A4221D1FB6803F03F027B681B6A8E
:105110009A421AD1FA6847F6C07313407A68526A05
:105120009201934211D1FB6803F440327B689B6A81
:105130005B08013B1B049A4207D1FB6803F07062D5
:105140007B68DB6A1B069A4201D0012300E0002342
:1051500018461837BD4680BD0038024098ED00085B
:105160006000474280B584B000AF786039607B68EA
:10517000002B01D1012374E17B681B68002B03D055
:105180007B681B680F2B04D940F25A217B48FCF73F
:1051900083FA3B68002B19D03B68012B16D03B6883
:1051A000022B13D03B68032B10D03B68042B0DD08F
:1051B0003B68052B0AD03B68062B07D03B68072BC2
:1051C00004D040F25B216D48FCF766FA6C4B1B681B
:1051D00003F007033A689A420CD9694B3A68D2B295
:1051E0001A70674B1B6803F007033A689A4201D0B4
:1051F000012336E17B681B6803F00203002B49D0D2
:105200007B681B6803F00403002B05D05D4B9B6893
:105210005C4A43F4E05393607B681B6803F0080327
:10522000002B05D0574B9B68564A43F4604393606C
:105230007B689B68002B24D07B689B68802B20D0E8
:105240007B689B68902B1CD07B689B68A02B18D038
:105250007B689B68B02B14D07B689B68C02B10D0F8
:105260007B689B68D02B0CD07B689B68E02B08D0B8
:105270007B689B68F02B04D040F27E213F48FCF70E
:105280000BFA404B9B6823F0F0027B689B683D491A
:1052900013438B607B681B6803F00103002B59D01C
:1052A0007B685B68002B10D07B685B68012B0CD09F
:1052B0007B685B68022B08D07B685B68032B04D09B
:1052C00040F285212D48FCF7E7F97B685B68012BEC
:1052D00007D12C4B1B6803F40033002B19D1012399
:1052E000BFE07B685B68022B03D07B685B68032BA5
:1052F00007D1244B1B6803F00073002B09D1012355
:10530000AFE0204B1B6803F00203002B01D1012307
:10531000A7E01C4B9B6823F003027B685B6819497C
:1053200013438B60FDF710FDF8600AE0FDF70CFDFC
:105330000246FB68D31A41F28832934201D9032313
:105340008FE0104B9B6803F00C027B685B689B004E
:105350009A42EBD10A4B1B6803F007033A689A4262
:1053600012D2074B3A68D2B21A70054B1B6803F091
:1053700007033A689A4207D0012372E098ED0008CB
:10538000003C0240003802407B681B6803F00403C5
:10539000002B25D07B68DB68002B18D07B68DB688E
:1053A000B3F5805F13D07B68DB68B3F5A05F0ED0E8
:1053B0007B68DB68B3F5C05F09D07B68DB68B3F559
:1053C000E05F04D040F2C3212848FCF765F9284B80
:1053D0009B6823F4E0527B68DB68254913438B60AC
:1053E0007B681B6803F00803002B26D07B681B69D1
:1053F000002B18D07B681B69B3F5805F13D07B68E6
:105400001B69B3F5A05F0ED07B681B69B3F5C05F65
:1054100009D07B681B69B3F5E05F04D040F2CA2174
:105420001248FCF739F9124B9B6823F460427B6801
:105430001B69DB000E4913438B6000F021F8024624
:105440000B4B9B681B0903F00F030A49CB5C22FA44
:1054500003F3094A1360094B1B681846FCF7CAFAA4
:10546000002318461037BD4680BD00BF98ED0008E8
:105470000038024000F00008600000206C000020AE
:105480002DE9B04F94B000AF00237B640023FB6490
:1054900000233B640023BB64794B9B6803F00C033F
:1054A000082B0DD0082B00F2E180002B02D0042B3A
:1054B00003D0DBE0734BBB64DBE0734BBB64D8E031
:1054C0006F4B5B6803F03F037B646D4B5B6803F4D9
:1054D0008003002B63D06A4B5B689B090022BB638F
:1054E000FA63BB6BC3F308033B6300237B63D7E919
:1054F0000C4522462B464FF000004FF000015901A9
:1055000041EAD261500102460B462146511A3961E7
:10551000294663EB01037B614FF000024FF000036B
:10552000D7E904AB59468B01514643EA9163514692
:105530008A015146B2EB0108594663EB01094FF06D
:1055400000024FF000034FEAC90343EA58734FEAE1
:10555000C80290469946234618EB0303BB602B46CE
:1055600049EB0303FB604FF000024FF00003D7E963
:10557000024529464B02214643EAD15321464A02BD
:10558000104619467B6C0022BB62FA62D7E90A23F7
:10559000FBF75AFB02460B461346FB6458E0384BB8
:1055A0005B689B09002218461146C0F308033B6262
:1055B00000237B62D7E9088942464B464FF0000042
:1055C0004FF00001590141EAD261500102460B46F9
:1055D0004146B2EB010A494663EB010B4FF0000272
:1055E0004FF000034FEA8B1343EA9A634FEA8A12A3
:1055F000B2EB0A0463EB0B054FF000024FF000031F
:10560000EB0043EA5473E20014461D464346E31898
:105610003B604B4645EB03037B604FF000024FF0CD
:105620000003D7E9004529468B02214643EA9153FE
:1056300021468A02104619467B6C0022BB61FA6142
:10564000D7E90623FBF700FB02460B461346FB6433
:105650000B4B5B681B0C03F0030301335B003B64E3
:10566000FA6C3B6CB2FBF3F3BB6402E0054BBB642A
:1056700000BFBB6C18465037BD46BDE8B08F00BFB9
:10568000003802400024F40000127A0080B400AF19
:10569000034B1B681846BD465DF8047B704700BF8E
:1056A0006000002080B500AFFFF7F0FF0246054B19
:1056B0009B689B0A03F007030349CB5C22FA03F3C0
:1056C000184680BD0038024010F0000880B500AFD9
:1056D000FFF7DCFF0246054B9B685B0B03F00703FB
:1056E0000349CB5C22FA03F3184680BD0038024020
:1056F00010F0000880B483B000AF786039607B6838
:105700000F221A60124B9B6803F003027B685A60F9
:105710000F4B9B6803F0F0027B689A600C4B9B6810
:1057200003F4E0527B68DA60094B9B68DB0803F402
:10573000E0527B681A61074B1B6803F007023B6865
:105740001A6000BF0C37BD465DF8047B704700BF90
:1057500000380240003C024080B582B000AF786063
:105760007B68002B01D1012325E07B681B68144A6C
:10577000934203D0A3211348FBF78EFF7B685B792C
:10578000DBB2002B05D17B6800221A717868FBF729
:10579000A3FF7B6802225A717B681B681A687B68CA
:1057A0001B6842F004021A607B6801225A717B6810
:1057B00000229A60002318460837BD4680BD00BF0E
:1057C00000080650D0ED000880B582B000AF7860C8
:1057D0007B68002B01D101237EE17B681B68704A46
:1057E00093420ED07B681B686E4A934209D07B6857
:1057F0001B686D4A934204D04FF4A1716B48FBF7CC
:105800004BFF7B685B68002B09D07B685B68B3F556
:10581000827F04D040F243116448FBF73DFF7B6870
:105820009B68002B0ED07B689B68B3F5806F09D016
:105830007B689B68B3F5004F04D04FF4A2715B48BE
:10584000FBF72AFF7B68DB68B3F5006F08D07B6845
:10585000DB68002B04D040F245115448FBF71CFFD5
:105860007B689B69B3F5007F0DD07B689B69002B3B
:1058700009D07B689B69B3F5802F04D04FF4A371E6
:105880004A48FBF709FF7B68DB69002B20D07B6867
:10589000DB69082B1CD07B68DB69102B18D07B6878
:1058A000DB69182B14D07B68DB69202B10D07B6858
:1058B000DB69282B0CD07B68DB69302B08D07B6838
:1058C000DB69382B04D040F247113848FBF7E4FE7F
:1058D0007B681B6A002B08D07B681B6A802B04D076
:1058E0004FF4A4713148FBF7D7FE7B685B6A002B4D
:1058F00008D07B685B6A102B04D040F249112B481A
:10590000FBF7CAFE7B685B6A002B51D17B681B6981
:10591000002B08D07B681B69022B04D04FF4A671C2
:105920002248FBF7B9FE7B685B69002B08D07B68D7
:105930005B69012B04D040F24D111C48FBF7ACFE13
:105940007B685B68B3F5827F25D17B68DB69002BC0
:1059500059D07B68DB69082B55D07B68DB69102B3D
:1059600051D07B68DB69182B4DD07B68DB69202B1D
:1059700049D07B68DB69282B45D07B68DB69302BFD
:1059800041D07B68DB69382B3DD040F2511107488C
:10599000FBF782FE37E07B680022DA6133E000BF6C
:1059A0000030014000380040003C004008EE000894
:1059B0007B68DB69002B20D07B68DB69082B1CD05F
:1059C0007B68DB69102B18D07B68DB69182B14D03F
:1059D0007B68DB69202B10D07B68DB69282B0CD01F
:1059E0007B68DB69302B08D07B68DB69382B04D0FF
:1059F00040F25B113A48FBF74FFE7B6800221A61C8
:105A00007B6800225A617B6800229A627B6893F867
:105A10005130DBB2002B06D17B68002283F8502086
:105A20007868FBF713FF7B68022283F851207B68BC
:105A30001B681A687B681B6822F040021A607B684A
:105A40005B6803F482727B689B6803F404431A4327
:105A50007B68DB6803F400631A437B681B6903F00F
:105A600002031A437B685B6903F001031A437B68F6
:105A70009B6903F400731A437B68DB6903F0380306
:105A80001A437B681B6A03F0800342EA03017B68C8
:105A90009B6A03F400527B681B680A431A607B68A8
:105AA0009B691B0C03F004017B685B6A03F0100226
:105AB0007B681B680A435A607B681B68DA697B68ED
:105AC0001B6822F40062DA617B6800225A657B68F9
:105AD000012283F85120002318460837BD4680BDB7
